:100000000C943C000C9410130C9410130C941013CB
:100010000C9410130C9410130C9410130C941013D4
:100020000C9410130C9410130C9410130C941013C4
:100030000C9410130C9410130C9410130C941013B4
:100040000C9443100C9410130C9410130C94101374
:100050000C941013920A9C0AA60AB00ABA0AC40A9F
:10006000CE0AF70C010D0B0D150D1F0D290D330DCB
:100070003D0D00600066800011241FBECFE5D8E072
:10008000DEBFCDBFE2E7F0E040E017C0B591A5913B
:1000900035912591059107FD0CC095918591EF0152
:1000A000F92FE82F05900D92A217B307D9F7FE019B
:1000B00004C01D92A217B307E1F7E737F40731F741
:0C00C0000E94DE050C948C12F894FFCF17
:1000CC00436F6F6C696E670048656174696E670099
:1000DC00496E6163746976650054656D703A2000F1
:0A00EC0020202000256400204300BE
:1000F60068076C094C836A9074A07AC0008068888F
:0601060000846C82008100
:07010C00286E756C6C2900E0
:06011300286E696C290052
:10011A00A3EAB0E0E3E9F0E00C942A114C0159019A
:10012A00C756DF4F488359836A83C959D040212C67
:10013A00312C6E012BE8C20ED11C85E2782E2601E5
:10014A0030E8632ECE018D569F4FC456DF4F9983F8
:10015A008883CC59D0409C0140E8CF55DF4F288393
:10016A0039834A83C15AD040C756DF4F4881C9599B
:10017A00D040C656DF4F5881CA59D040C556DF4FC6
:10018A006881CB59D040FA01849167FD8081882328
:10019A0009F4C9C3CF57DF4F19821882C158D0401A
:1001AA008FEF9FEFCD57DF4F99838883C358D04095
:1001BA00CB57DF4F19821882C558D040A1E0B0E072
:1001CA00AC0FBD1FC957DF4FB983A883C758D040AA
:1001DA00E0E8F0E0C757DF4FF983E883C958D04019
:1001EA00CA01A62FE12CF12CFC012491A7FD208144
:1001FA0021111BC0E114F10401F19701C4010E940D
:10020A00620FC756DF4F88819981AA81C959D040A8
:10021A008E0D9F1DA11DF7FCAA95C756DF4F888337
:10022A009983AA83C959D04008C00196A11D2532D5
:10023A0009F3FFEFEF1AFF0AD7CFC756DF4F8881BE
:10024A009981AA81C959D040FC012491A7FD208136
:10025A00253209F056C39C014A2F2F5F3F4F4F4F5B
:10026A00C256DF4F288339834A83CE59D040C756B6
:10027A00DF4F288339834A83C959D040C756DF4F95
:10028A0088819981AA81C959D040FC012491A7FD8E
:10029A0020812B3241F4CF57DF4F28813981C15851
:1002AA00D04024600BC02C32CCF02D3259F5CF57F8
:1002BA00DF4F28813981C158D0402160CF57DF4FA5
:1002CA0039832883C158D0400196A11DC756DF4FF4
:1002DA0088839983AA83C959D040D0CF203241F468
:1002EA00CF57DF4F28813981C158D0402860E6CFE7
:1002FA00233291F4CF57DF4F28813981C158D0403A
:10030A002061DCCF203341F4CF57DF4F2881398178
:10031A00C158D0402260D2CF2A3299F50196A11D48
:10032A00C756DF4F88839983AA83C959D040D5011C
:10033A00ED91FC911197CF0102968D939C93808148
:10034A009181CB57DF4F99838883C558D04097FF57
:10035A003EC0CF57DF4F28813981C158D040B1E024
:10036A002B27CF57DF4F39832883C158D040919527
:10037A0081959109CB57DF4F99838883C558D0401F
:10038A0026C0BC018A2F0E94DD0ECB57DF4F99830E
:10039A008883C558D040C756DF4F288139814A81A2
:1003AA00C959D040F901849147FD8081082E000C7B
:1003BA00990BC0970A9758F42F5F3F4F4F4FC75674
:1003CA00DF4F288339834A83C959D040E4CFCF57B6
:1003DA00DF4F88819981C158D04080FF07C08D7F47
:1003EA00CF57DF4F99838883C158D040C756DF4F14
:1003FA0088819981AA81C959D040FC012491A7FD1D
:10040A0020812E3209F058C0CD57DF4F1982188249
:10041A00C358D0409C014A2F2F5F3F4F4F4FC756BA
:10042A00DF4F288339834A83C959D040F90154914F
:10043A0047FD50815A32D1F40296A11DC756DF4FAB
:10044A0088839983AA83C959D040D501ED91FC913B
:10045A001197CF0102968D939C9380819181CD57FC
:10046A00DF4F99838883C358D04026C0842FB901AF
:10047A000E94DD0ECD57DF4F99838883C358D04041
:10048A00C756DF4F288139814A81C959D040F901BD
:10049A00849147FD8081082E000C990BC0970A971A
:1004AA0058F42F5F3F4F4F4FC756DF4F288339838A
:1004BA004A83C959D040E4CFCE0187569F4F0E9444
:1004CA00450E182FC756DF4F2881C959D040C65646
:1004DA00DF4F8881CA59D040C556DF4F9881CB5922
:1004EA00D040E22FF82F849197FD8081082E000CCE
:1004FA00990B0E94BC128936910509F45AC0B4F4CA
:10050A008336910509F466C144F48532910509F4EC
:10051A00A1C18136910529F1B3C18436910509F447
:10052A0048C0883691050CF42DC1AAC180379105BF
:10053A0009F4CBC04CF48E36910509F419C18F36F3
:10054A00910509F47CC09CC18537910509F454C012
:10055A008837910509F496C08337910509F090C14F
:10056A0058C1612F70E0A501C6010E94D010892BE5
:10057A0009F4B7C1C756DF4F88819981AA81C95941
:10058A00D0409C014A2F2F5F3F4F4F4FC756DF4F36
:10059A00288339834A83C959D040FC012491A7FD95
:1005AA002081A601BE016F577F4FC4010E940D131F
:1005BA0095C1612F70E0950141E050E0C6010E94AB
:1005CA009907892B09F48DC1C756DF4F8881998114
:1005DA00AA81C959D0400196A11DC756DF4F888309
:1005EA009983AA83C959D040A601BE016F577F4F8C
:1005FA00C4010E94DA0672C1612F70E0950140E0E1
:10060A0050E0C6010E949907892B09F46AC1C756AE
:10061A00DF4F88819981AA81C959D0400196A11DCD
:10062A00C756DF4F88839983AA83C959D040A60148
:10063A00BE016F577F4FC4010E944A0D4FC1612FFF
:10064A0070E0950140E050E0C6010E949907892BAD
:10065A0009F447C1C756DF4F88819981AA81C959D0
:10066A00D0400196A11DC756DF4F88839983AA837C
:10067A00C959D040A601BE016F577F4FC4010E94DD
:10068A00B70B2CC1612F70E0950140E050E0C60124
:10069A000E949907892B09F424C1C756DF4F888124
:1006AA009981AA81C959D0409C014A2F2F5F3F4F97
:1006BA004F4FC756DF4F288339834A83C959D040E1
:1006CA00FC012491A7FD20814BC0950140E050E038
:1006DA0060EF70E0C6010E949907892B09F401C1F5
:1006EA00C756DF4F88819981AA81C959D04001969E
:1006FA00A11DC756DF4F88839983AA83C959D04061
:10070A0086E023E131E040E0F901DE01AD56BF4F5A
:10071A00742F0E943B12D6012C9111963C9111978D
:10072A0012964C91129713965C91139714966C91AA
:10073A00149715967C91159716968C91169717967D
:10074A009C91A0E00E94541251F400E010E0CF55B1
:10075A00DF4F288139814A81C15AD040B9C028E780
:10076A00A601BE016F577F4FC4010E949E04B6C006
:10077A00612F70E09501A1014E0D5F1DC6010E9417
:10078A00E10AAFC0612F70E0A501C6010E94D01036
:10079A00892B09F4A6C0C756DF4F88819981AA819F
:1007AA00C959D0409C014A2F2F5F3F4F4F4FC75620
:1007BA00DF4F288339834A83C959D040FC012491E9
:1007CA00A7FD2081A601BE016F577F4FC4010E9479
:1007DA000D1384C0103809F084C0C756DF4F8881D2
:1007EA009981AA81C959D0400196A11DC756DF4FE8
:1007FA0088839983AA83C959D040D501ED91FC9188
:10080A001197CF0102968D939C938081F601808384
:10081A005BC0103809F065C0C756DF4F88819981DF
:10082A00AA81C959D0400196A11DC756DF4F8883B6
:10083A009983AA83C959D040D501ED91FC911197AA
:10084A00CF0103968D939C9320813181428100E0F0
:10085A0010E03EC0103809F044C0C756DF4F888107
:10086A009981AA81C959D0400196A11DC756DF4F67
:10087A0088839983AA83C959D040F601708224C01B
:10088A00D6017C92C256DF4F288139814A81CE59DE
:10089A00D040C756DF4F288339834A83C959D0408D
:1008AA00CF57DF4F19821882C158D040CB57DF4F3C
:1008BA0019821882C558D0408FEF9FEFCD57DF4F6E
:1008CA0099838883C358D04001E010E0462D9201F5
:1008DA00BE016F577F4FC4010E94880C8E0D9F1D69
:1008EA0011C0C756DF4F88819981AA81C959D04062
:1008FA000196A11DC756DF4F88839983AA83C959D8
:10090A00D040C7017101E80EF91EE214F3044CF459
:10091A008FE490E090936300809362008FEF9FEFE3
:10092A0003C0170121CCC101CD55DF4FE2E10C9480
:02093A007C112E
:10093C00A4E1B0E0E4EAF4E00C942A1198878F83E8
:10094C007A8369835C8B4B8B122FDB011296ED91B2
:10095C00FC91139714962D913C9115973E832D8302
:10096C00ED90FC90119716962D903C901797F7FDF3
:10097C0003C0E894E1F802C0E1E0F0E0C701807147
:10098C0099279A878987E4FE1FC0AB89BC892C9173
:10099C0011963C91119712964C91129713965C916B
:1009AC00139714966C91149715967C91159716962F
:1009BC008C91169717969C91A0E00E94541221F0EE
:1009CC008D819E81029702C08D819E819701287036
:1009DC0033273C872B87E3FC0197AB89BC894C9070
:1009EC0011965C90119712966C90129713967C90BE
:1009FC00139714968C90149715969C9015971696A1
:100A0C00AC9016971796BC90A981BA811896CD9088
:100A1C00DC901997B1E0CB1AD108D101AC0DBD1DFA
:100A2C001C929C838B839F01281B390B3E872D873F
:100A3C00C70182709927988B8F87812F012E000C0C
:100A4C00990BDC01A154B109BA8BA98B32E0C31606
:100A5C00D10434F489859A85892B09F04CC073C074
:100A6C009201A301B401C501A0E00E94541281F1CE
:100A7C00B1E0CB1AD108C2018F7099278A30910549
:100A8C0014F4C09602C0895A9F4FE989FA897A9763
:100A9C0048F49C012062215631092A31310510F4A9
:100AAC000E94B312F101EC0DFD1D80832B813C8162
:100ABC00215031093C832B839201A301B401C50160
:100ACC0004E00E94F21029013A014B015C01BECFF7
:100ADC008D859E85AB81BC818A0F9B1F18161906CC
:100AEC003CF21A161B060CF0B5CFEF85F889EF2BEC
:100AFC0009F0BECFAFCFAB89BC892C9111963C913C
:100B0C00119712964C91129713965C911397149619
:100B1C006C91149715967C91159716968C91169747
:100B2C0017969C91A0E00E94541269F0F101EC0D13
:100B3C00FD1D31971083B2E0CB1AD108F101EC0DF9
:100B4C00FD1D80E38083EB85FC85EF2B41F0F1E00C
:100B5C00CF1AD108F101EC0DFD1D80E28083A98133
:100B6C00BA8118962D913C911997215031092C1965
:100B7C003D09C20CD31CA60160E80D811E818F813A
:100B8C0098850E94F7089C01EF81F88580819181FE
:100B9C0090FF09C0A981BA8112968D919C911397EF
:100BAC00821793070CF4C9016496E2E10C947C1152
:100BBC00CF93DF9300D000D0CDB7DEB70E94601288
:100BCC0081E00E94C50F80E00E94C50F0E94461173
:100BDC000E94A1120E940E11D12C01C00E2D0E9458
:100BEC00FC128FE59AEE0197F1F700C000000E940D
:100BFC00F2127C01182F8A3108F43FC081E00E9468
:100C0C00191080E00E94EF0F91E0D91671F081E08D
:100C1C000E946A1060E080E00E9497126CEC70E019
:100C2C0080E00E946111DD24D3941E3230F00E94CA
:100C3C0076128FEF0E9404137EC0B7017727072E20
:100C4C00000C880B990B0E94270F29E23CE543E12D
:100C5C0051E40E94001320E030E84FE153E40E947D
:100C6C00C4124B015C010E947612C501B4010E94B2
:100C7C00960F862F0E9404135EC0843108F040C08A
:100C8C0081E00E94191080E00E94EF0F82E0D816DC
:100C9C0079F081E00E946A1060E080E00E94971277
:100CAC0064ED70E080E00E9461116894DD24D1F85D
:100CBC00153030F40E946B1281EE0E9404133BC07D
:100CCC00B7017727072E000C880B990B0E94270F72
:100CDC0020E030E048E451EC0E94001320E030ECBE
:100CEC004EE953E40E94C5124B015C010E946B1249
:100CFC00C501B4010E94960F862F0E9404131BC0DD
:100D0C000E94811281E00E94EF0F80E00E94191076
:100D1C0093E0D91681F081E00E946A1060E080E0D7
:100D2C000E9497126CED70E080E00E9461110F2E12
:100D3C00F3E0DF2EF02D011709F450CF60E081E0D5
:100D4C000E94971265EE70E080E00E94611166E0EF
:100D5C0081E00E9497126CEE70E080E00E946111BD
:100D6C00C70199279F938F9380EF90E0A0E0AF93FA
:100D7C009F938F938E010F5F1F4F1F930F930E94B2
:100D8C00D91166E081E00E949712B80180E80E94B8
:100D9C00611163EF70E080E00E9461110FB6F8946E
:080DAC00DEBF0FBECDBF1ACF60
:100DB400ADE0B0E0E0EEF6E00C942A119A87898762
:100DC4007C836B83FA01DB011296CD90DC90139740
:100DD40014968D919C9115979E838D83ED90FC9034
:100DE4001197FA82E98216960D90BC91A02DB887CE
:100DF400AF832080318042805380648075808680F8
:100E040097808101B42DF52DE62D7B868C869D86F9
:100E14009101A201B301C401A0E00E9454124CF458
:100E24000E941D128901B42FF52FE62F7B878C8732
:100E34009D87D7FC04C0E894E1F8FA82E982910125
:100E4400A201B301C401A0E0ED80FE800E9454120F
:100E54001CF0898182FF04C081E0E81AF10805C012
:100E640083FF03C091E0E91AF108CE0101965C0109
:100E74008AE0C82ED12C2B2F3F2F4E2F5B856C85FB
:100E84007D858B819C810E945208FC019101A20105
:100E9400B301C401A0E00E9454121CF0898182FFB6
:100EA40012C031970F8118850E0F1F1F9101A201E7
:100EB400B301C401A0E00E94541214F08BE201C0FB
:100EC4008DE2D80108C083FF07C03197AF81B88590
:100ED400AE0FBF1F80E28C93E980FA80AB81BC81A6
:100EE40018962D913C911997215031092E1B3F0BD7
:100EF4008F819885E80FF91FAF0160E80D811E818D
:100F040089859A850E94F7089C01A985BA858D91E7
:100F14009C9190FF07C0EB81FC81828193818217B1
:0E0F240093070CF4C9012D96E2E10C947C11A8
:100F32000F931F93CF93DF93FC01D901683871059A
:100F420031F194F461387105B1F12CF46038710516
:100F520009F478C09FC06238710509F459C0643839
:100F6200710509F46FC096C0603A710509F448C072
:100F72002CF46039710509F44BC08CC0603C7105DA
:100F820009F476C0603F710509F472C083C0CD9147
:100F9200DC911197CE0102968D939C93452B39F0EB
:100FA2009881892F880F880B908381835BC0888109
:100FB2008083118268C0CD91DC911197CE01049695
:100FC2008D939C93452B99F088819981AA81BB814D
:100FD200AC01BD01770F440B542FBA01808391837A
:100FE200A283B383448345834683478328C0088111
:100FF20019812A813B81008311832283338345C077
:10100200CD91DC911197CE0102968D939C9323C0D2
:10101200CD91DC911197CE0108968D939C937881A6
:1010220069815A814B813C812D819E818F817083A0
:10103200618352834383348325839683878381E04C
:1010420090E02AC0CD91DC911197CE0102968D934A
:101052009C93452BA1F099812881892F880F880BB9
:101062002083918382838383848385838683E6CFEF
:10107200CD91DC911197CE0102968D939C930881BC
:1010820019810083118312821382148215821682BF
:101092001782D5CF80E090E0DF91CF911F910F9121
:0210A2000895AF
:1010A400A2E1B0E0E8E5F8E00C942A11FC010A8B17
:1010B4001B832C83732E642E552E462E7D83CC8663
:1010C400D886BF82AE82868197819B878A87D50125
:1010D4004D915C91228133818085918501971C011A
:1010E40037FF02C021E030E0EA85FB85E80FF91FF5
:1010F40010824701E1E0F0E0FA83E983C9018E1927
:101104009F099E878D87DA01A270BB27B88BAF87B2
:10111400B885BB0FBB0BB98B1214130474F0A981EF
:10112400BA81AB2B09F05CC0AE81BF818D919C91DB
:1011340011978F7E8D939C9353C02A893B814C8158
:10114400572D662D752D842D9D81A0E00E9454128B
:10115400B1F1E1E02E1A3108FC85F987AF2EB8848D
:10116400C988DC2CEC2CFC2C0C2D1C2D2A893B81F1
:101174004C81572D662D752D842D9D810E942D1235
:10118400C90129839A83EA85FB85E20DF31D805DFD
:10119400808381E0881A91082A893B814C81572DEC
:1011A400662D752D842D9D810E942F122A8B3B83E1
:1011B4004C83752E662E572E482E9D83ADCF8D857C
:1011C4009E85880D991D181619061CF21814190409
:1011D4000CF0A5CFEF85F889EF2B09F0BACF9FCF9C
:0A11E400C1016296E2E10C947C1157
:1011EE002F923F924F926F927F928F92AF92BF92B9
:1011FE00CF92DF92EF92FF920F931F93CF93DF93D5
:10120E00CDB7DEB766970FB6F894DEBF0FBECDBF73
:10121E005C013A01862E6901C701817099279C8B6A
:10122E008B8BE0FC1DC020173107D4F47801EC182D
:10123E00FD08FE8AED8AA70191E1E916F10410F08E
:10124E0040E150E060E270E0CE0101969A8B898B0E
:10125E000E94AA1289899A891C0120E8422E0BC08D
:10126E009601682DA301C5010E94620FC016D1061A
:10127E00ECF2C60125C090E1E916F10458F020E128
:10128E0030E0642DA101C5010E94620F80E1E81AD1
:10129E00F108F1CF2D893E892F70332789899A89DC
:1012AE00AC0160E8C5010E94620F8B899C89892B75
:1012BE0031F49601682DA301C5010E94620FC80189
:1012CE0066960FB6F894DEBF0FBECDBFDF91CF91FD
:1012DE001F910F91FF90EF90DF90CF90BF90AF9046
:0E12EE008F907F906F904F903F902F900895BB
:1012FC00813019F130F08230E1F1833009F454C0BF
:10130C00089541110CC02AB381E090E002C0880F0F
:10131C00991F6A95E2F7809582238ABB0895413024
:10132C0009F05CC02AB381E090E002C0880F991FDD
:10133C006A95E2F7822B8ABB089541110CC027B342
:10134C0081E090E002C0880F991F6A95E2F78095C2
:10135C00822387BB0895413009F040C027B381E058
:10136C0090E002C0880F991F6A95E2F7822B87BB29
:10137C00089541110CC024B381E090E002C0880FA5
:10138C00991F6A95E2F78095822384BB08954130BA
:10139C0029F524B381E090E002C0880F991F6A956B
:1013AC00E2F7822B84BB089541110CC021B381E07C
:1013BC0090E002C0880F991F6A95E2F7809582230E
:1013CC0081BB0895413051F421B381E090E002C01B
:0E13DC00880F991F6A95E2F7822B81BB089556
:1013EA00813019F130F08230E1F1833009F454C0D0
:1013FA00089541110CC02BB381E090E002C0880F20
:10140A00991F6A95E2F7809582238BBB0895413034
:10141A0009F05CC02BB381E090E002C0880F991FED
:10142A006A95E2F7822B8BBB089541110CC028B351
:10143A0081E090E002C0880F991F6A95E2F78095D3
:10144A00822388BB0895413009F040C028B381E067
:10145A0090E002C0880F991F6A95E2F7822B88BB39
:10146A00089541110CC025B381E090E002C0880FB5
:10147A00991F6A95E2F78095822385BB08954130CA
:10148A0029F525B381E090E002C0880F991F6A957B
:10149A00E2F7822B85BB089541110CC022B381E08B
:1014AA0090E002C0880F991F6A95E2F7809582231F
:1014BA0082BB0895413051F422B381E090E002C02A
:0E14CA00880F991F6A95E2F7822B82BB089566
:1014D800E82F613059F018F0623079F014C087B104
:1014E8008F7B87B987B18F7787B90DC087B1806443
:1014F80087B987B18F7787B906C087B1806487B904
:1015080087B1806887B98E2F90E08730910508F001
:101518004AC0FC01E65DFF4F0C94EC1286B18E7F49
:1015280086B986B18D7F86B986B18B7F86B93BC077
:1015380086B18E7F86B986B1826086B986B18B7F87
:1015480086B931C086B1816086B986B1826086B9B4
:1015580086B18B7F86B927C086B18E7F86B986B162
:101568008D7F86B986B1846086B91DC086B18160D9
:1015780086B986B18D7F86B986B1846086B913C075
:1015880086B18E7F86B986B1826086B986B184605D
:1015980086B909C086B1816086B986B1826086B98C
:1015A80086B1846086B986B1806886B986B188605C
:0A15B80086B98FB780688FBF0895D1
:1015C200CF93DF93DC01F90164387105D9F164F43A
:1015D2006138710521F16238710509F440C0603843
:1015E200710509F054C02EC060397105C1F184F44F
:1015F2006838710509F04BC0C081D181CE010296D5
:1016020091838083E881F981ED93FC9340833CC010
:10161200603A7105B9F0603C7105A1F038C0C08133
:10162200D181CE01029691838083E881F981ED9385
:10163200FC93052E000C660B770B4083518362836B
:10164200738322C0C081D181CE01029691838083AF
:10165200E881F981ED93FC935183408315C0C081E9
:10166200D181CE01029691838083E881F981ED9345
:10167200FC9351834083852F880F880B8283838359
:10168200848385838683878381E090E002C080E043
:0816920090E0DF91CF91089573
:10169A000FC00E94CB1238F00E94D21220F095237C
:1016AA0011F00C94E6120C940A1311240C94DA1219
:1016BA000E94AE1070F3959FC1F3950F50E0551F2D
:1016CA00629FF001729FBB27F00DB11D639FAA278D
:1016DA00F00DB11DAA1F649F6627B00DA11D661FDC
:1016EA00829F2227B00DA11D621F739FB00DA11DFD
:1016FA00621F839FA00D611D221F749F3327A00DB7
:10170A00611D231F849F600D211D822F762F6A2F52
:10171A0011249F5750409AF0F1F088234AF0EE0FB7
:10172A00FF1FBB1F661F771F881F91505040A9F7E4
:10173A009E3F510580F00C94E6120C94DA125F3F3A
:10174A00E4F3983ED4F3869577956795B795F79520
:10175A00E7959F5FC1F7FE2B880F911D9695879598
:04176A0097F908954E
:10176E00A2E0B0E0EDEBFBE00C942A111C014B0162
:10177E00FA01DB0112962D913C91139714964D9020
:10178E005C9015978D919C9111979A8389831696EB
:10179E006D907C90179737FD03C08D7F9A83898358
:1017AE000081118122813381448155816681778147
:1017BE00FE0131965F0188E0C82ED12C7201C40162
:1017CE000E945208298124FF06C00197F301E80FF9
:1017DE00F91F20E32083298123FF06C00197F3011F
:1017EE00E80FF91F20E22083E980FA80D4011896D1
:1017FE002D913C91199721503109281B390B860DDB
:10180E00971DAC0160E88201C1010E94F7089C019E
:10181E00F1018081918190FF08C0D40112968D91C3
:10182E009C911397821793070CF4C9012296E2E15B
:04183E000C947C1179
:1018420011C00E94CB1238F00E94D21220F039F45B
:101852009F3F19F426F40C940A130EF4E095E7FB6B
:101862000C94E612E92F0E94AE1058F3BA176207E1
:1018720073078407950720F079F4A6F50C94D91222
:101882000EF4E0950B2EBA2FA02D0B01B901900199
:101892000C01CA01A0011124FF27591B99F0593FDD
:1018A20050F4503E68F11A16F040A22F232F342F25
:1018B2004427585FF3CF469537952795A795F04073
:1018C2005395C9F77EF41F16BA0B620B730B840B88
:1018D200BAF09150A1F0FF0FBB1F661F771F881F40
:1018E200C2F70EC0BA0F621F731F841F48F4879598
:1018F20077956795B795F7959E3F08F0B0CF93958A
:0E190200880F08F09927EE0F979587950895A6
:101910002F923F924F926F927F928F92AF92BF928F
:10192000CF92DF92EF92FF920F931F93CF93DF93AB
:10193000CDB7DEB727970FB6F894DEBF0FBECDBF89
:101940006C017B013901842E98018CE0282E81E006
:10195000382E80E0482E87E0F101AE014F5F5F4FE7
:10196000DA01742D0E943B12F70102811381A480D9
:10197000B580E080F18061147104810419F43A01AA
:10198000F0E88F2E2115310529F4882DB3010E942E
:10199000AF119C0117FD04C00217130708F498014A
:1019A0008501682DA301C6010E94F70827960FB68E
:1019B000F894DEBF0FBECDBFDF91CF911F910F9185
:1019C000FF90EF90DF90CF90BF90AF908F907F907F
:0A19D0006F904F903F902F90089504
:1019DA0090E08830910508F054C0FC01EF5CFF4F9D
:1019EA000C94EC1287B18E7F87B987B18D7F87B946
:1019FA0087B18B7F87B945C087B1816087B987B1C5
:101A0A008D7F87B987B18B7F87B93BC087B18E7FBE
:101A1A0087B987B1826087B987B18B7F87B931C0AF
:101A2A0087B1816087B987B1826087B987B18B7FB7
:101A3A0087B927C087B18E7F87B987B18D7F87B96C
:101A4A0087B1846087B91DC087B1816087B987B1C2
:101A5A008D7F87B987B1846087B913C087B18E7FBC
:101A6A0087B987B1826087B987B1846087B909C0AD
:101A7A0087B1816087B987B1826087B987B184608D
:0A1A8A0087B986B1806486B908951B
:101A9400A2E0B0E0E0E5FDE00C942A113C014B012A
:101AA400FA01DB0112962D913C91139714964D90F7
:101AB4005C9015978D919C9111979A8389831696C2
:101AC4002D903C90179737FD03C08D7F9A838983AF
:101AD400008111812281338144815581668177811E
:101AE400FE0131965F018AE0C82ED12C7201C40137
:101AF4000E945208E980FA80D40118962D913C91F5
:101B0400199721503109281B390B820D931DAC0103
:101B140060E88201C3010E94F7089C01F3018081FF
:101B2400918190FF08C0D40112968D919C911397D6
:101B3400821793070CF4C9012296E2E10C947C11FC
:101B44006F927F928F92EF92FF920F931F93CF9396
:101B5400DF93CDB7DEB761970FB6F894DEBF0FBE43
:101B6400CDBFFE01319651E1DF011D925A95E9F78F
:101B7400A2E0B1E0BA83A9839C838B8377FF09C079
:101B84008FE490E090936300809362008FEF9FEF67
:101B940019C03901842E7C01615071097F836E83E1
:101BA4009801682DA301CF010E949711488559859A
:101BB4002E813F814217530708F49A01F701E20F7F
:101BC400F31F108261960FB6F894DEBF0FBECDBF2F
:101BD400DF91CF911F910F91FF90EF908F907F90A5
:041BE4006F90089561
:101BE80088249924F401E401B0E49F93AA279A1564
:101BF8008B049C04ED05FE05CF05D007A10798F4DA
:101C0800AD2FDC2FCF2FFE2FE92D982C892E982F62
:101C1800872F762F652F542F432F322F2227B85026
:101C280031F7BF9127C01B2EBF91BB27220F331F4F
:101C3800441F551F661F771F881F991F881C991CF2
:101C4800EE1FFF1FCC1FDD1FAA1FBB1F8A149B049A
:101C5800EC05FD05CE05DF05A007B10748F08A1899
:101C68009B08EC09FD09CE09DF09A00BB10B216027
:101C78001A94E1F62EF49401AF01BE01CD01000CD7
:021C88000895BD
:101C8A00CF92DF92EF92DC0190E0292F30E0220F11
:101C9A00331F6901032E000CEE086E2DA6014A506F
:101CAA005F4F6F4F6A01E62EFA018491E7FC80814B
:101CBA0081110DC02F5F3F4F032E000C440B2A5099
:101CCA003F4F4F4FF901849147FD808124C0CD9049
:101CDA00DD90EC901297F6014491E7FC4081841361
:101CEA0015C02F5F3F4F032E000C440B2A503F4F65
:101CFA004F4FF901949147FD90815FEFC51AD50ABC
:101D0A00E50ACD92DD92EC92129701C09F5F9B305B
:0E1D1A0008F4BBCF892FEF90DF90CF90089593
:101D28000F931F93CF93DF93DB012D913C91119774
:101D380030FF25C017964D915C91189715962D91F7
:101D48003C9116974217530778F41296ED91FC913F
:101D58001397808312962D913C9113972F5F3F4FD5
:101D680013963C932E93129717962D913C911897A2
:101D78002F5F3F4F18963C932E93179715C01D96CB
:101D8800ED91FC911E97309719F48FEF9FEF0CC0DF
:101D98008B01EC010995892BC1F7F80187819085A2
:101DA800019690878783CE01DF91CF911F910F9184
:021DB80008958C
:101DBA00CF939B01482FF901849147FD808180329E
:101DCA00C9F1682F082E000C770B6950710965302C
:101DDA00710580F18B3249F5A0E0B0E02F5F3F4FEB
:101DEA004F4F02C0A0E0B0E080E090E0CAE0F90105
:101DFA00649147FD6081062E000C770B60537109D0
:101E0A006A30710560F4C89FF001C99FF00D112472
:101E1A002F5F3F4F4F4FCF01861B970BE8CFAB2B5E
:101E2A0069F491958195910909C08D32D9F6A1E09D
:101E3A00B0E0D4CF2F5F3F4F4F4FBDCFCF91089522
:101E4A00E89409C097FB3EF490958095709561954A
:101E5A007F4F8F4F9F4F9923A9F0F92F96E9BB2700
:101E6A009395F695879577956795B795F111F8CF7C
:101E7A00FAF4BB0F11F460FF1BC06F5F7F4F8F4FE7
:101E8A009F4F16C0882311F096E911C0772321F0DD
:101E9A009EE8872F762F05C0662371F096E8862F75
:101EAA0070E060E02AF09A95660F771F881FDAF7CC
:0A1EBA00880F9695879597F9089513
:101EC4006F927F928F92CF92DF92EF920F931F9334
:101ED400CF93DF938C016A01E62EE9013A01862E45
:101EE400620E731E811C37FD8A94C614D704E8045D
:101EF40079F0F6018491E7FC8081B801082E000C8A
:101F0400990B0E94940E8FEFC81AD80AE80AEDCFF5
:101F1400CE01DF91CF911F910F91EF90DF90CF9081
:081F24008F907F906F900895EB
:101F2C000E94B61088F09F5798F0B92F9927B75197
:101F3C00B0F0E1F0660F771F881F991F1AF0BA9561
:101F4C00C9F714C0B13091F00E94D912B1E00895D4
:101F5C000C94D912672F782F8827B85F39F0B93FC6
:101F6C00CCF3869577956795B395D9F73EF4909514
:0E1F7C008095709561957F4F8F4F9F4F089510
:101F8A00813061F028F0823079F0833099F0089539
:101F9A0041E063E080E00E947E09089541E061E04B
:101FAA0080E00E947E09089541E062E080E00E949C
:101FBA007E09089541E063E080E00E947E0941E0E5
:101FCA0061E080E00E947E0941E062E080E00E94D8
:041FDA007E090895DF
:101FDE00813061F028F0823079F0833099F00895E5
:101FEE0041E063E080E00E94F509089541E061E080
:101FFE0080E00E94F509089541E062E080E00E94D1
:10200E00F509089541E063E080E00E94F50941E0A2
:10201E0061E080E00E94F50941E062E080E00E940C
:04202E00F509089513
:10203200813061F028F0823079F0833099F0089590
:1020420040E063E080E00E94F509089540E061E02D
:1020520080E00E94F509089540E062E080E00E947D
:10206200F509089540E063E080E00E94F50940E050
:1020720061E080E00E94F50940E062E080E00E94B9
:04208200F5090895BF
:102086001F920F920FB60F9211242F933F934F93E7
:102096005F936F937F938F939F93AF93BF93EF93CA
:1020A600FF93E0916000F09161000995FF91EF9137
:1020B600BF91AF919F918F917F916F915F914F915A
:0E20C6003F912F910F900FBE0F901F90189515
:1020D400CF93C82F40E060E082E00E94F50940E021
:1020E40061E082E00E94F5096C2F83E00E940D12EA
:1020F40041E062E082E00E94F5098FE99FE00197E8
:10210400F1F700C0000040E062E082E00E94F509BF
:04211400CF910895CA
:10211800CF93C82F41E060E082E00E94F50940E0DB
:1021280061E082E00E94F5096C2F83E00E940D12A5
:1021380041E062E082E00E94F5098FE99FE00197A3
:10214800F1F700C0000040E062E082E00E94F5097B
:04215800CF91089586
:10215C0057FD9058440F551F59F05F3F71F047954C
:10216C00880F97FB991F61F09F3F79F08795089531
:10217C00121613061406551FF2CF4695F1DF08C050
:10218C00161617061806991FF1CF8695710561056D
:04219C000894089506
:1021A000FA0160387105CCF0623871051CF06338B3
:1021B000710599F4A081B1819D012C5F3F4F31835E
:1021C00020834D915D916D917C91FC014083518301
:1021D0006283738381E090E0089580E090E0089549
:1021E00097FB10F8169400080F93083098F00850E9
:1021F000232F342F452F562F672F782F892F902D7F
:10220000F4CF05949795879577956795579547955A
:0C221000379527950A95AAF70F910895BD
:10221C0041E063E081E00E947E0983B7806483BF64
:10222C0083B7886083BF83B7806283BF83B78F7E99
:10223C0083BF83B7816083BF83B7826083BF83B75B
:08224C008B7F83BF1CBE0895C7
:102254002F923F924F925F926F927F928F929F92B2
:10226400AF92BF92CF92DF92EF92FF920F931F93A0
:10227400CF93DF93CDB7DEB7CA1BDB0B0FB6F89451
:08228400DEBF0FBECDBF0994BF
:10228C006FEF82E00E94FD116FEF83E00E94FD1161
:10229C002FEF89EF90E0215080409040E1F700C093
:1022AC00000088E30E946A108CE00E946A1081E0B2
:0622BC000E946A10089563
:1022C200CF92DF92EF92CF936B01E82EC0E003C072
:1022D2000E948C10CF5FAE2DC6018C0F911DA11DE7
:1022E200FC018491A7FD80818111F2CFCF91EF9003
:0622F200DF90CF9008957B
:1022F8002A88398848885F846E847D848C849B848E
:10230800AA84B984C884DF80EE80FD800C811B819B
:10231800AA81B981CE0FD11D0FB6F894DEBF0FBECA
:06232800CDBFED01089598
:10232E00A2E0B0E0EDE9F1E10C9438118C013A83B2
:10233E0029839E012F5F3F4F0E948D00F80120815F
:10234E0024FF02C08FEF9FEF2296E4E00C948A11D7
:10235E00CF92DF92EF926B01E82EA82FCB01FC01FA
:10236E002491A7FD2081222319F00196A11DF7CFFC
:0C237E008C199D09EF90DF90CF9008951E
:10238A000E940713BC0180E090E00E94250F20E024
:10239A0030E040E85EE30E9400130E94960F7093BB
:0823AA006500609364000895D2
:1023B200A0E0B0E0EFEDF1E10C943A119E01265F4E
:1023C2003F4F4F81588569858D819E810E944812B9
:0623D200E2E00C948C1106
:1023D800092E0394000C11F4882352F0BB0F40F42B
:1023E800BF2B11F460FF04C06F5F7F4F8F4F9F4F6B
:0223F800089546
:1023FA00813041F028F0823039F0833039F0089585
:10240A006ABB089567BB089564BB089561BB0895CC
:10241A00813041F028F0823039F0833039F0089564
:10242A006BBB089568BB089565BB089562BB0895A8
:10243A006095709580959095309540955095219529
:10244A003F4F4F4F5F4F6F4F7F4F8F4F9F4F0895B3
:10245A00689401C0E8948F929F92CF93DF930E9471
:0C246A00F40DDF91CF919F908F900895AA
:10247600992777FD05C005900D920197E1F708951C
:0A24860001900D920197E1F708950F
:102490000F931F9389019A01462F6FEF7FE70E94E8
:0824A000A20D1F910F91089598
:1024A8000024A7FD00942A17300540055005600553
:0824B8007005800590050895F0
:1024C00041E060E081E00E947E0941E061E081E05E
:0624D0000E947E09089540
:1024D60041E060E081E00E94F50940E061E081E0D2
:0624E6000E94F5090895B3
:1024EC0040E060E081E00E94F50941E061E081E0BC
:0624FC000E94F50908959D
:1025020040E060E081E00E94F50940E061E081E0A6
:062512000E94F509089586
:10251800EC010E9415130E941413CE010E94161399
:06252800CE010E94121317
:10252E00811103C080E8860F02C080EC860F0E94E6
:04253E006A10089582
:1025420062E085E00E946C0A85EC91E10E94F7123C
:022552000895EA
:10255400FC01480F591FE417F50711F06193FBCFF5
:022564000895D8
:102566009C01215631092A31310510F48F759927BE
:022576000895C6
:102578009C01215431092A31310508F480620895FB
:0E2588005058BB27AA270E94210C0C94EC117E
:0E25960000240A941616170618060906089562
:0E25A40000240A941216130614060506089564
:0E25B200E894BB2766277727CB0197F9089599
:0C25C0008F3F11F48CBF08958CBF08956C
:0C25CC0097F99F6780E870E060E00895D8
:0C25D800EE0FFF1F0590F491E02D099418
:0A25E4008091640090916500089555
:0A25EE00909361008093600008954F
:0825F80080E00E94ED0C089543
:082600000E944D0B0C94EC113B
:062608000E94E01208959B
:06260E0084B195B10895AE
:062614009FEF80EC089529
:06261A0080E090E008954D
:042620000C94000016
:042624000E946400AC
:02262800089513
:02262A00089511
:02262C0008950F
:00000001FF
